{
  "address": "0x5e0B21926c7EF962Ce6C0eeB62C5B2733eEb3DE6",
  "abi": [
    {
      "inputs": [],
      "name": "MAX_HOURS",
      "outputs": [
        {
          "internalType": "uint256",
          "name": "",
          "type": "uint256"
        }
      ],
      "stateMutability": "view",
      "type": "function"
    },
    {
      "inputs": [],
      "name": "MIN_HOURS",
      "outputs": [
        {
          "internalType": "uint256",
          "name": "",
          "type": "uint256"
        }
      ],
      "stateMutability": "view",
      "type": "function"
    },
    {
      "inputs": [
        {
          "internalType": "string",
          "name": "name",
          "type": "string"
        },
        {
          "internalType": "string",
          "name": "description",
          "type": "string"
        },
        {
          "internalType": "string",
          "name": "tokenName",
          "type": "string"
        },
        {
          "internalType": "string",
          "name": "tokenSymbol",
          "type": "string"
        },
        {
          "internalType": "uint256",
          "name": "numberOfShares",
          "type": "uint256"
        },
        {
          "internalType": "uint256",
          "name": "stakeAmount",
          "type": "uint256"
        },
        {
          "internalType": "address",
          "name": "_disputeAdmin",
          "type": "address"
        }
      ],
      "name": "createContract",
      "outputs": [],
      "stateMutability": "payable",
      "type": "function"
    },
    {
      "inputs": [
        {
          "internalType": "uint256",
          "name": "",
          "type": "uint256"
        }
      ],
      "name": "freelancers",
      "outputs": [
        {
          "internalType": "uint256",
          "name": "id",
          "type": "uint256"
        },
        {
          "internalType": "string",
          "name": "name",
          "type": "string"
        },
        {
          "internalType": "string",
          "name": "description",
          "type": "string"
        },
        {
          "internalType": "address",
          "name": "stakingContractAddress",
          "type": "address"
        },
        {
          "internalType": "address",
          "name": "owner",
          "type": "address"
        }
      ],
      "stateMutability": "view",
      "type": "function"
    },
    {
      "inputs": [],
      "name": "getFreelancerCount",
      "outputs": [
        {
          "internalType": "uint256",
          "name": "",
          "type": "uint256"
        }
      ],
      "stateMutability": "view",
      "type": "function"
    },
    {
      "inputs": [],
      "name": "idCounter",
      "outputs": [
        {
          "internalType": "uint256",
          "name": "",
          "type": "uint256"
        }
      ],
      "stateMutability": "view",
      "type": "function"
    },
    {
      "stateMutability": "payable",
      "type": "receive"
    }
  ],
  "transactionHash": "0x91a04add216b8040a6d64df6645fe05b273611ec1ea0b96f5ecdac8fa5e41bb1",
  "args": [],
  "numDeployments": 1,
  "solcInputHash": "f05cf010590fa3af9d6e015b92bdb3d2",
  "bytecode": "0x608060405234801561001057600080fd5b50614189806100206000396000f3fe608060405260043610620000605760003560e01c806304debb5f146200006d5780630b9364d8146200008657806320be553814620000c75780634a623b4814620000f55780635d341543146200010c578063eb08ab28146200012b57600080fd5b366200006857005b600080fd5b620000846200007e36600462000661565b62000143565b005b3480156200009357600080fd5b50620000ab620000a536600462000741565b6200041b565b604051620000be959493929190620007a3565b60405180910390f35b348015620000d457600080fd5b50620000e668014d1120d7b160000081565b604051908152602001620000be565b3480156200010257600080fd5b50600154620000e6565b3480156200011957600080fd5b50620000e668270801d946c940000081565b3480156200013857600080fd5b50620000e660005481565b813414620001985760405162461bcd60e51b815260206004820152601960248201527f496e73756666696369656e74205374616b6520416d6f756e740000000000000060448201526064015b60405180910390fd5b68270801d946c94000008311158015620001bb575068014d1120d7b16000008310155b6200022f5760405162461bcd60e51b815260206004820152603b60248201527f496e76616c6964206e756d626572206f66207368617265732e2053686f756c6460448201527f2062652077697468696e20323420616e642037323020686f757273000000000060648201526084016200018f565b6000836200024684670de0b6b3a76400006200080e565b6200025291906200082e565b90506000828583898960405162000269906200058b565b6200027995949392919062000851565b604051809103906000f08015801562000296573d6000803e3d6000fd5b5090506000816001600160a01b03163460405160006040518083038185875af1925050503d8060008114620002e8576040519150601f19603f3d011682016040523d82523d6000602084013e620002ed565b606091505b5050905080620003385760405162461bcd60e51b815260206004820152601560248201527414dd185ad9481d1c985b9cd9995c8819985a5b1959605a1b60448201526064016200018f565b60016040518060a001604052806000808154809291906200035990620008a0565b90915550815260208082018e9052604082018d90526001600160a01b0386166060830152336080909201919091528254600181810185556000948552938290208351600590920201908155908201519192909190820190620003bc90826200094b565b5060408201516002820190620003d390826200094b565b5060608201516003820180546001600160a01b03199081166001600160a01b039384161790915560809093015160049092018054909316911617905550505050505050505050565b600181815481106200042c57600080fd5b600091825260209091206005909102018054600182018054919350906200045390620008bc565b80601f01602080910402602001604051908101604052809291908181526020018280546200048190620008bc565b8015620004d25780601f10620004a657610100808354040283529160200191620004d2565b820191906000526020600020905b815481529060010190602001808311620004b457829003601f168201915b505050505090806002018054620004e990620008bc565b80601f01602080910402602001604051908101604052809291908181526020018280546200051790620008bc565b8015620005685780601f106200053c5761010080835404028352916020019162000568565b820191906000526020600020905b8154815290600101906020018083116200054a57829003601f168201915b50505050600383015460049093015491926001600160a01b039081169216905085565b61373b8062000a1983390190565b634e487b7160e01b600052604160045260246000fd5b600082601f830112620005c157600080fd5b813567ffffffffffffffff80821115620005df57620005df62000599565b604051601f8301601f19908116603f011681019082821181831017156200060a576200060a62000599565b816040528381528660208588010111156200062457600080fd5b836020870160208301376000602085830101528094505050505092915050565b80356001600160a01b03811681146200065c57600080fd5b919050565b600080600080600080600060e0888a0312156200067d57600080fd5b873567ffffffffffffffff808211156200069657600080fd5b620006a48b838c01620005af565b985060208a0135915080821115620006bb57600080fd5b620006c98b838c01620005af565b975060408a0135915080821115620006e057600080fd5b620006ee8b838c01620005af565b965060608a01359150808211156200070557600080fd5b50620007148a828b01620005af565b9450506080880135925060a088013591506200073360c0890162000644565b905092959891949750929550565b6000602082840312156200075457600080fd5b5035919050565b6000815180845260005b81811015620007835760208185018101518683018201520162000765565b506000602082860101526020601f19601f83011685010191505092915050565b85815260a060208201526000620007be60a08301876200075b565b8281036040840152620007d281876200075b565b6001600160a01b0395861660608501529390941660809092019190915250949350505050565b634e487b7160e01b600052601160045260246000fd5b8082028115828204841417620008285762000828620007f8565b92915050565b6000826200084c57634e487b7160e01b600052601260045260246000fd5b500490565b60018060a01b038616815284602082015283604082015260a0606082015260006200088060a08301856200075b565b82810360808401526200089481856200075b565b98975050505050505050565b600060018201620008b557620008b5620007f8565b5060010190565b600181811c90821680620008d157607f821691505b602082108103620008f257634e487b7160e01b600052602260045260246000fd5b50919050565b601f8211156200094657600081815260208120601f850160051c81016020861015620009215750805b601f850160051c820191505b8181101562000942578281556001016200092d565b5050505b505050565b815167ffffffffffffffff81111562000968576200096862000599565b6200098081620009798454620008bc565b84620008f8565b602080601f831160018114620009b857600084156200099f5750858301515b600019600386901b1c1916600185901b17855562000942565b600085815260208120601f198616915b82811015620009e957888601518255948401946001909101908401620009c8565b508582101562000a085787850151600019600388901b60f8161c191681555b5050505050600190811b0190555056fe60806040523480156200001157600080fd5b506040516200373b3803806200373b83398101604081905262000034916200020c565b6200003f33620000e1565b6200004a33620000e1565b600380546001600160a01b0319166001600160a01b03871617905560405130908390839087906200007b9062000131565b6200008a9493929190620002d9565b604051809103906000f080158015620000a7573d6000803e3d6000fd5b50600980546001600160a01b03929092166001600160a01b03199283168117909155600a8054909216179055505060015550620003259050565b600080546001600160a01b038381166001600160a01b0319831681178455604051919092169283917f8be0079c531659141344cd1fd0a4f28419497f9722a3daafe3b4186f6b6457e09190a35050565b610f8780620027b483390190565b634e487b7160e01b600052604160045260246000fd5b60005b838110156200017257818101518382015260200162000158565b50506000910152565b600082601f8301126200018d57600080fd5b81516001600160401b0380821115620001aa57620001aa6200013f565b604051601f8301601f19908116603f01168101908282118183101715620001d557620001d56200013f565b81604052838152866020858801011115620001ef57600080fd5b6200020284602083016020890162000155565b9695505050505050565b600080600080600060a086880312156200022557600080fd5b85516001600160a01b03811681146200023d57600080fd5b60208701516040880151606089015192975090955093506001600160401b03808211156200026a57600080fd5b6200027889838a016200017b565b935060808801519150808211156200028f57600080fd5b506200029e888289016200017b565b9150509295509295909350565b60008151808452620002c581602086016020860162000155565b601f01601f19169290920160200192915050565b6001600160a01b0385168152608060208201819052600090620002ff90830186620002ab565b8281036040840152620003138186620002ab565b91505082606083015295945050505050565b61247f80620003356000396000f3fe6080604052600436106101c65760003560e01c80637eec20a8116100f7578063d77a916c11610095578063f2fde38b11610064578063f2fde38b14610586578063f835cd3c146105a6578063f9931be0146105c6578063fe9efcaf146105f357600080fd5b8063d77a916c14610513578063ded98a2914610533578063e75b237814610553578063f0ad56201461056657600080fd5b80639ae71781116100d15780639ae71781146104b3578063b51d0534146104d3578063b65b29cf146104e6578063bc6a48aa146104fd57600080fd5b80637eec20a8146103ff5780638d9776721461041f5780638da5cb5b1461049557600080fd5b8063564a565d116101645780635cf4ee911161013e5780635cf4ee91146103975780635f944326146103b75780636945b123146103d7578063715018a6146103ea57600080fd5b8063564a565d1461031f578063586717301461036b57806359a7b3fe1461038157600080fd5b80633326de98116101a05780633326de981461029f57806334b25ee2146102bf5780634066fae0146102df5780634635256e146102ff57600080fd5b8063020235ff146101fc5780630b4ea64414610247578063202a884e1461027f57600080fd5b366101f7576000546001600160a01b031633036101f55734600260008282546101ef9190612150565b90915550505b005b600080fd5b34801561020857600080fd5b5061023461021736600461217f565b600460209081526000928352604080842090915290825290205481565b6040519081526020015b60405180910390f35b34801561025357600080fd5b50600954610267906001600160a01b031681565b6040516001600160a01b03909116815260200161023e565b34801561028b57600080fd5b506101f561029a3660046121b2565b61060a565b3480156102ab57600080fd5b506101f56102ba3660046121b2565b6108d8565b3480156102cb57600080fd5b506101f56102da3660046121d9565b610a09565b3480156102eb57600080fd5b506101f56102fa3660046121b2565b610dbb565b34801561030b57600080fd5b5061023461031a366004612209565b610e34565b34801561032b57600080fd5b5061035661033a3660046121b2565b6008602052600090815260409020805460019091015460ff1682565b6040805192835290151560208301520161023e565b34801561037757600080fd5b5061023460075481565b34801561038d57600080fd5b5061023460015481565b3480156103a357600080fd5b506102346103b2366004612233565b610e60565b3480156103c357600080fd5b506101f56103d23660046121b2565b610f82565b6101f56103e5366004612209565b611056565b3480156103f657600080fd5b506101f56112a0565b34801561040b57600080fd5b506101f561041a3660046121b2565b6112b4565b34801561042b57600080fd5b5061048261043a3660046121b2565b600660205260009081526040902080546001820154600283015460038401546004850154600590950154939492939192909160ff81169061010090046001600160a01b031687565b60405161023e979695949392919061226b565b3480156104a157600080fd5b506000546001600160a01b0316610267565b3480156104bf57600080fd5b506102346104ce366004612209565b6114d6565b6101f56104e1366004612209565b611504565b3480156104f257600080fd5b506102346201518081565b34801561050957600080fd5b5061023460025481565b34801561051f57600080fd5b50600354610267906001600160a01b031681565b34801561053f57600080fd5b506101f561054e3660046121d9565b6117e0565b6101f5610561366004612233565b611aff565b34801561057257600080fd5b506101f56105813660046121b2565b611e13565b34801561059257600080fd5b506101f56105a13660046122cf565b612017565b3480156105b257600080fd5b50600a54610267906001600160a01b031681565b3480156105d257600080fd5b506102346105e13660046122cf565b60056020526000908152604090205481565b3480156105ff57600080fd5b506102346203f48081565b6000818152600660205260408120548291036106415760405162461bcd60e51b8152600401610638906122ea565b60405180910390fd5b6001600083815260066020526040902060059081015460ff169081111561066a5761066a612255565b146106dd5760405162461bcd60e51b815260206004820152603960248201527f43616e277420736c61736820667265656c616e6365722062656361757365207460448201527f6865207461736b206973206e6f7420696e2070726f67726573000000000000006064820152608401610638565b60008281526006602052604090206002810154600190910154429161070191612150565b106107455760405162461bcd60e51b815260206004820152601460248201527315185cdac81a5cc81b9bdd081b185d19481e595d60621b6044820152606401610638565b60008281526006602052604090206005015461010090046001600160a01b031633146107835760405162461bcd60e51b815260040161063890612317565b600082815260066020526040812060058101546004909101546101009091046001600160a01b0316906107b790600261235a565b604051600081818185875af1925050503d80600081146107f3576040519150601f19603f3d011682016040523d82523d6000602084013e6107f8565b606091505b50509050806108195760405162461bcd60e51b815260040161063890612371565b600954600084815260066020526040908190206005810154600390910154915163a9059cbb60e01b81526101009091046001600160a01b039081166004830152602482019290925291169063a9059cbb906044016020604051808303816000875af115801561088c573d6000803e3d6000fd5b505050506040513d601f19601f820116820180604052508101906108b091906123be565b5060008381526006602052604090206005908101805460ff19166001835b0217905550505050565b6000818152600660205260408120548291036109065760405162461bcd60e51b8152600401610638906122ea565b61090e612090565b6001600083815260066020526040902060059081015460ff169081111561093757610937612255565b1461097d5760405162461bcd60e51b815260206004820152601660248201527515dbdc9ac8185b1c9958591e4819195b1a5d995c995960521b6044820152606401610638565b6000828152600660205260409020600281015460019091015442916109a191612150565b10156109e15760405162461bcd60e51b815260206004820152600f60248201526e5461736b206973206f76657264756560881b6044820152606401610638565b600082815260066020526040902060050180546003919060ff19166001835b02179055505050565b600082815260066020526040812054839103610a375760405162461bcd60e51b8152600401610638906122ea565b60008381526008602052604090206001015460ff16610a985760405162461bcd60e51b815260206004820152601860248201527f4469737075746520616c7265616479207265736f6c76656400000000000000006044820152606401610638565b6003546001600160a01b03163314610af25760405162461bcd60e51b815260206004820152601d60248201527f596f7520617265206e6f742074686520646973707574652061646d696e0000006044820152606401610638565b8115610c56576000838152600660205260408120600401546002805491929091610b1d9084906123e2565b9091555050600083815260066020526040812060058101546004909101546101009091046001600160a01b031690610b5690600261235a565b604051600081818185875af1925050503d8060008114610b92576040519150601f19603f3d011682016040523d82523d6000602084013e610b97565b606091505b5050905080610bb85760405162461bcd60e51b815260040161063890612371565b600954600085815260066020526040908190206005810154600390910154915163a9059cbb60e01b81526101009091046001600160a01b039081166004830152602482019290925291169063a9059cbb906044016020604051808303816000875af1158015610c2b573d6000803e3d6000fd5b505050506040513d601f19601f82011682018060405250810190610c4f91906123be565b5050610d7f565b6009546001600160a01b031663a9059cbb610c796000546001600160a01b031690565b6000868152600660205260409081902060030154905160e084901b6001600160e01b03191681526001600160a01b03909216600483015260248201526044016020604051808303816000875af1158015610cd7573d6000803e3d6000fd5b505050506040513d601f19601f82011682018060405250810190610cfb91906123be565b5060008054848252600660205260408083206004015490516001600160a01b03909216918381818185875af1925050503d8060008114610d57576040519150601f19603f3d011682016040523d82523d6000602084013e610d5c565b606091505b5050905080610d7d5760405162461bcd60e51b815260040161063890612371565b505b505060009081526006602090815260408083206005908101805460ff199081169092179055600890925290912060019081018054909216179055565b60095460405163a9059cbb60e01b8152336004820152602481018390526001600160a01b039091169063a9059cbb906044016020604051808303816000875af1158015610e0c573d6000803e3d6000fd5b505050506040513d601f19601f82011682018060405250810190610e3091906123be565b5050565b6001600160a01b038216600090815260056020526040812054610e579083610e60565b90505b92915050565b6000808315610ebb576006610e766001866123e2565b610e8190600261235a565b610e8c906001612150565b85610e986001826123e2565b610ea2919061235a565b610eac919061235a565b610eb691906123f5565b610ebe565b60005b9050600084158015610ed05750836001145b610f4557600684610ee26001886123e2565b610eec9190612150565b610ef790600261235a565b610f02906001612150565b610f0c8688612150565b86610f1860018a6123e2565b610f229190612150565b610f2c919061235a565b610f36919061235a565b610f4091906123f5565b610f48565b60005b90506000610f5683836123e2565b600154909150610f6e82670de0b6b3a764000061235a565b610f7891906123f5565b9695505050505050565b600081815260066020526040812054829103610fb05760405162461bcd60e51b8152600401610638906122ea565b610fb8612090565b600082815260066020526040812060059081015460ff1690811115610fdf57610fdf612255565b1461102c5760405162461bcd60e51b815260206004820181905260248201527f5461736b20616c72656164792073746172746564206f722063616e63656c65646044820152606401610638565b6000828152600660205260409020426001808301919091556005909101805460ff19168280610a00565b6001600160a01b0382166000908152600560205260409020548015158061108557506001600160a01b03831633145b6110ea5760405162461bcd60e51b815260206004820152603060248201527f4f6e6c79207468652073686172657327207375626a6563742063616e2062757960448201526f2074686520666972737420736861726560801b6064820152608401610638565b60006110f68284610e60565b90508034101561113f5760405162461bcd60e51b8152602060048201526014602482015273125b9cdd59999a58da595b9d081c185e5b595b9d60621b6044820152606401610638565b6001600160a01b038416600090815260046020908152604080832033845290915290205461116e908490612150565b6001600160a01b038516600090815260046020908152604080832033845290915290205561119c8383612150565b6001600160a01b0385166000908152600560205260409020557ff7dd8a134438de4c59401760e24ef5c6cc9c74583b2b022085697f3021e597683385600186856111e68289612150565b604080516001600160a01b039788168152959096166020860152921515848601526060840191909152608083015260a082015290519081900360c00190a160095460405163a9059cbb60e01b8152336004820152602481018590526001600160a01b039091169063a9059cbb906044016020604051808303816000875af1158015611275573d6000803e3d6000fd5b505050506040513d601f19601f8201168201806040525081019061129991906123be565b5050505050565b6112a8612090565b6112b260006120ea565b565b6000818152600660205260408120548291036112e25760405162461bcd60e51b8152600401610638906122ea565b60008281526006602052604090206005015461010090046001600160a01b031633146113205760405162461bcd60e51b815260040161063890612317565b600082815260066020526040812060059081015460ff169081111561134757611347612255565b1461138b5760405162461bcd60e51b815260206004820152601460248201527315185cdac8185b1c9958591e481cdd185c9d195960621b6044820152606401610638565b600082815260066020526040808220600581015460049091015491516101009091046001600160a01b0316919060006040518083038185875af1925050503d80600081146113f5576040519150601f19603f3d011682016040523d82523d6000602084013e6113fa565b606091505b505090508061141b5760405162461bcd60e51b815260040161063890612371565b600954600084815260066020526040908190206005810154600390910154915163a9059cbb60e01b81526101009091046001600160a01b039081166004830152602482019290925291169063a9059cbb906044016020604051808303816000875af115801561148e573d6000803e3d6000fd5b505050506040513d601f19601f820116820180604052508101906114b291906123be565b50600083815260066020526040902060050180546002919060ff19166001836108ce565b6001600160a01b038216600090815260056020526040812054610e57906114fe9084906123e2565b83610e60565b6001600160a01b03821660009081526005602052604090205481811161156c5760405162461bcd60e51b815260206004820152601a60248201527f43616e6e6f742073656c6c20746865206c6173742073686172650000000000006044820152606401610638565b600061158161157b84846123e2565b84610e60565b6001600160a01b03851660009081526004602090815260408083203384529091529020549091508311156115ed5760405162461bcd60e51b8152602060048201526013602482015272496e73756666696369656e742073686172657360681b6044820152606401610638565b6001600160a01b038416600090815260046020908152604080832033845290915290205461161c9084906123e2565b6001600160a01b038516600090815260046020908152604080832033845290915290205561164a83836123e2565b6001600160a01b0385166000908152600560205260408120919091557ff7dd8a134438de4c59401760e24ef5c6cc9c74583b2b022085697f3021e597689033908690868561169882896123e2565b604080516001600160a01b039788168152959096166020860152921515848601526060840191909152608083015260a082015290519081900360c00190a1604051600090339083908381818185875af1925050503d8060008114611718576040519150601f19603f3d011682016040523d82523d6000602084013e61171d565b606091505b50506009546040516323b872dd60e01b8152336004820152306024820152604481018790529192506001600160a01b0316906323b872dd906064016020604051808303816000875af1158015611777573d6000803e3d6000fd5b505050506040513d601f19601f8201168201806040525081019061179b91906123be565b50806112995760405162461bcd60e51b81526020600482015260146024820152732330b4b632b2103a379039b2b7321022ba3432b960611b6044820152606401610638565b60008281526006602052604081205483910361180e5760405162461bcd60e51b8152600401610638906122ea565b60008381526006602052604090206005015461010090046001600160a01b0316331461184c5760405162461bcd60e51b815260040161063890612317565b6003600084815260066020526040902060059081015460ff169081111561187557611875612255565b146118bb5760405162461bcd60e51b815260206004820152601660248201527515dbdc9ac81b9bdd0819195b1a5d995c9959081e595d60521b6044820152606401610638565b6000838152600660205260409020600281015460019091015442916203f480916118e59190612150565b6118ef9190612150565b101561193d5760405162461bcd60e51b815260206004820152601e60248201527f5461736b206973206f76657264756520666f722076616c69646174696f6e00006044820152606401610638565b8115611aa05760008381526006602052604090206005908101805460ff191660018302179055506009546001600160a01b031663a9059cbb6119876000546001600160a01b031690565b6000868152600660205260409081902060030154905160e084901b6001600160e01b03191681526001600160a01b03909216600483015260248201526044016020604051808303816000875af11580156119e5573d6000803e3d6000fd5b505050506040513d601f19601f82011682018060405250810190611a0991906123be565b50600083815260066020526040808220600581015460049091015491516101009091046001600160a01b0316919060006040518083038185875af1925050503d8060008114611a74576040519150601f19603f3d011682016040523d82523d6000602084013e611a79565b606091505b5050905080611a9a5760405162461bcd60e51b815260040161063890612371565b50505050565b505060008181526006602090815260408083206005018054600460ff199182161790915581518083018352428152808401858152958552600890935292209051815591516001929092018054909116911515919091179055565b505050565b670de0b6b3a76400006002541015611b6f5760405162461bcd60e51b815260206004820152602d60248201527f467265656c616e6365722773207374616b65206973206c657373207468616e2060448201526c312073686172652076616c756560981b6064820152608401610638565b34670de0b6b3a764000014611bdc5760405162461bcd60e51b815260206004820152602d60248201527f436c69656e74207374616b65206973206e6f7420657175616c20746f2074686560448201526c207368617265732076616c756560981b6064820152608401610638565b6009546040516370a0823160e01b8152336004820152670de0b6b3a7640000916001600160a01b0316906370a0823190602401602060405180830381865afa158015611c2c573d6000803e3d6000fd5b505050506040513d601f19601f82011682018060405250810190611c509190612417565b1015611c945760405162461bcd60e51b8152602060048201526013602482015272496e73756666696369656e742073686172657360681b6044820152606401610638565b60078054906000611ca483612430565b90915550506040805160e081018252600754815260006020820152908101611ccf6201518085612150565b815260208101839052670de0b6b3a7640000604082015260600160008152336020918201526007546000908152600682526040908190208351815591830151600180840191909155908301516002830155606083015160038301556080830151600483015560a0830151600580840180549293909260ff1916918490811115611d5a57611d5a612255565b021790555060c0919091015160059091018054610100600160a81b0319166101006001600160a01b0393841602179055600954600754600090815260066020526040908190206003015490516323b872dd60e01b815233600482015230602482015260448101919091529116906323b872dd906064016020604051808303816000875af1158015611def573d6000803e3d6000fd5b505050506040513d601f19601f82011682018060405250810190611afa91906123be565b600081815260066020526040812054829103611e415760405162461bcd60e51b8152600401610638906122ea565b611e49612090565b6003600083815260066020526040902060059081015460ff1690811115611e7257611e72612255565b14611ecf5760405162461bcd60e51b815260206004820152602760248201527f5461736b206973206e6f7420696e2074686520736c617368656420636c69656e6044820152667420737461746560c81b6064820152608401610638565b6000828152600660205260409020600281015460019091015442916203f48091611ef99190612150565b611f039190612150565b10611f505760405162461bcd60e51b815260206004820152601f60248201527f5461736b2076616c69646174696f6e206973206e6f74206c61746520796574006044820152606401610638565b6009546001600160a01b031663a9059cbb611f736000546001600160a01b031690565b6000858152600660205260409081902060030154905160e084901b6001600160e01b03191681526001600160a01b03909216600483015260248201526044016020604051808303816000875af1158015611fd1573d6000803e3d6000fd5b505050506040513d601f19601f82011682018060405250810190611ff591906123be565b5060008281526006602052604090206005908101805460ff1916600183610a00565b61201f612090565b6001600160a01b0381166120845760405162461bcd60e51b815260206004820152602660248201527f4f776e61626c653a206e6577206f776e657220697320746865207a65726f206160448201526564647265737360d01b6064820152608401610638565b61208d816120ea565b50565b6000546001600160a01b031633146112b25760405162461bcd60e51b815260206004820181905260248201527f4f776e61626c653a2063616c6c6572206973206e6f7420746865206f776e65726044820152606401610638565b600080546001600160a01b038381166001600160a01b0319831681178455604051919092169283917f8be0079c531659141344cd1fd0a4f28419497f9722a3daafe3b4186f6b6457e09190a35050565b634e487b7160e01b600052601160045260246000fd5b80820180821115610e5a57610e5a61213a565b80356001600160a01b038116811461217a57600080fd5b919050565b6000806040838503121561219257600080fd5b61219b83612163565b91506121a960208401612163565b90509250929050565b6000602082840312156121c457600080fd5b5035919050565b801515811461208d57600080fd5b600080604083850312156121ec57600080fd5b8235915060208301356121fe816121cb565b809150509250929050565b6000806040838503121561221c57600080fd5b61222583612163565b946020939093013593505050565b6000806040838503121561224657600080fd5b50508035926020909101359150565b634e487b7160e01b600052602160045260246000fd5b600060e082019050888252876020830152866040830152856060830152846080830152600684106122ac57634e487b7160e01b600052602160045260246000fd5b60a08201939093526001600160a01b039190911660c09091015295945050505050565b6000602082840312156122e157600080fd5b610e5782612163565b60208082526013908201527215185cdac8191bd95cc81b9bdd08195e1a5cdd606a1b604082015260600190565b60208082526023908201527f596f7520617265206e6f742074686520636c69656e74206f662074686973207460408201526261736b60e81b606082015260800190565b8082028115828204841417610e5a57610e5a61213a565b6020808252602d908201527f4661696c656420746f2073656e6420746865207374616b6520616d6f756e742060408201526c1d1bc81d1a194818db1a595b9d609a1b606082015260800190565b6000602082840312156123d057600080fd5b81516123db816121cb565b9392505050565b81810381811115610e5a57610e5a61213a565b60008261241257634e487b7160e01b600052601260045260246000fd5b500490565b60006020828403121561242957600080fd5b5051919050565b6000600182016124425761244261213a565b506001019056fea2646970667358221220289b712b09a268b540a0ff5c4950d476e0da925eb82e7f421734412ae64a383564736f6c6343000814003360806040523480156200001157600080fd5b5060405162000f8738038062000f8783398101604081905262000034916200026c565b828260036200004483826200038c565b5060046200005382826200038c565b505050620000706200006a6200008660201b60201c565b6200008a565b6200007c8482620000dc565b5050505062000480565b3390565b600580546001600160a01b038381166001600160a01b0319831681179093556040519116919082907f8be0079c531659141344cd1fd0a4f28419497f9722a3daafe3b4186f6b6457e090600090a35050565b6001600160a01b038216620001375760405162461bcd60e51b815260206004820152601f60248201527f45524332303a206d696e7420746f20746865207a65726f206164647265737300604482015260640160405180910390fd5b80600260008282546200014b919062000458565b90915550506001600160a01b038216600081815260208181526040808320805486019055518481527fddf252ad1be2c89b69c2b068fc378daa952ba7f163c4a11628f55a4df523b3ef910160405180910390a35050565b505050565b634e487b7160e01b600052604160045260246000fd5b600082601f830112620001cf57600080fd5b81516001600160401b0380821115620001ec57620001ec620001a7565b604051601f8301601f19908116603f01168101908282118183101715620002175762000217620001a7565b816040528381526020925086838588010111156200023457600080fd5b600091505b8382101562000258578582018301518183018401529082019062000239565b600093810190920192909252949350505050565b600080600080608085870312156200028357600080fd5b84516001600160a01b03811681146200029b57600080fd5b60208601519094506001600160401b0380821115620002b957600080fd5b620002c788838901620001bd565b94506040870151915080821115620002de57600080fd5b50620002ed87828801620001bd565b606096909601519497939650505050565b600181811c908216806200031357607f821691505b6020821081036200033457634e487b7160e01b600052602260045260246000fd5b50919050565b601f821115620001a257600081815260208120601f850160051c81016020861015620003635750805b601f850160051c820191505b8181101562000384578281556001016200036f565b505050505050565b81516001600160401b03811115620003a857620003a8620001a7565b620003c081620003b98454620002fe565b846200033a565b602080601f831160018114620003f85760008415620003df5750858301515b600019600386901b1c1916600185901b17855562000384565b600085815260208120601f198616915b82811015620004295788860151825594840194600190910190840162000408565b5085821015620004485787850151600019600388901b60f8161c191681555b5050505050600190811b01905550565b808201808211156200047a57634e487b7160e01b600052601160045260246000fd5b92915050565b610af780620004906000396000f3fe608060405234801561001057600080fd5b50600436106100f55760003560e01c806370a0823111610097578063a457c2d711610066578063a457c2d7146101eb578063a9059cbb146101fe578063dd62ed3e14610211578063f2fde38b1461022457600080fd5b806370a0823114610197578063715018a6146101c05780638da5cb5b146101c857806395d89b41146101e357600080fd5b806323b872dd116100d357806323b872dd1461014d578063313ce56714610160578063395093511461016f57806340c10f191461018257600080fd5b806306fdde03146100fa578063095ea7b31461011857806318160ddd1461013b575b600080fd5b610102610237565b60405161010f9190610941565b60405180910390f35b61012b6101263660046109ab565b6102c9565b604051901515815260200161010f565b6002545b60405190815260200161010f565b61012b61015b3660046109d5565b6102e3565b6040516012815260200161010f565b61012b61017d3660046109ab565b610307565b6101956101903660046109ab565b610329565b005b61013f6101a5366004610a11565b6001600160a01b031660009081526020819052604090205490565b61019561033f565b6005546040516001600160a01b03909116815260200161010f565b610102610353565b61012b6101f93660046109ab565b610362565b61012b61020c3660046109ab565b6103e2565b61013f61021f366004610a33565b6103f0565b610195610232366004610a11565b61041b565b60606003805461024690610a66565b80601f016020809104026020016040519081016040528092919081815260200182805461027290610a66565b80156102bf5780601f10610294576101008083540402835291602001916102bf565b820191906000526020600020905b8154815290600101906020018083116102a257829003601f168201915b5050505050905090565b6000336102d7818585610494565b60019150505b92915050565b6000336102f18582856105b8565b6102fc858585610632565b506001949350505050565b6000336102d781858561031a83836103f0565b6103249190610aa0565b610494565b6103316107d6565b61033b8282610830565b5050565b6103476107d6565b61035160006108ef565b565b60606004805461024690610a66565b6000338161037082866103f0565b9050838110156103d55760405162461bcd60e51b815260206004820152602560248201527f45524332303a2064656372656173656420616c6c6f77616e63652062656c6f77604482015264207a65726f60d81b60648201526084015b60405180910390fd5b6102fc8286868403610494565b6000336102d7818585610632565b6001600160a01b03918216600090815260016020908152604080832093909416825291909152205490565b6104236107d6565b6001600160a01b0381166104885760405162461bcd60e51b815260206004820152602660248201527f4f776e61626c653a206e6577206f776e657220697320746865207a65726f206160448201526564647265737360d01b60648201526084016103cc565b610491816108ef565b50565b6001600160a01b0383166104f65760405162461bcd60e51b8152602060048201526024808201527f45524332303a20617070726f76652066726f6d20746865207a65726f206164646044820152637265737360e01b60648201526084016103cc565b6001600160a01b0382166105575760405162461bcd60e51b815260206004820152602260248201527f45524332303a20617070726f766520746f20746865207a65726f206164647265604482015261737360f01b60648201526084016103cc565b6001600160a01b0383811660008181526001602090815260408083209487168084529482529182902085905590518481527f8c5be1e5ebec7d5bd14f71427d1e84f3dd0314c0f7b2291e5b200ac8c7c3b925910160405180910390a3505050565b60006105c484846103f0565b9050600019811461062c578181101561061f5760405162461bcd60e51b815260206004820152601d60248201527f45524332303a20696e73756666696369656e7420616c6c6f77616e636500000060448201526064016103cc565b61062c8484848403610494565b50505050565b6001600160a01b0383166106965760405162461bcd60e51b815260206004820152602560248201527f45524332303a207472616e736665722066726f6d20746865207a65726f206164604482015264647265737360d81b60648201526084016103cc565b6001600160a01b0382166106f85760405162461bcd60e51b815260206004820152602360248201527f45524332303a207472616e7366657220746f20746865207a65726f206164647260448201526265737360e81b60648201526084016103cc565b6001600160a01b038316600090815260208190526040902054818110156107705760405162461bcd60e51b815260206004820152602660248201527f45524332303a207472616e7366657220616d6f756e7420657863656564732062604482015265616c616e636560d01b60648201526084016103cc565b6001600160a01b03848116600081815260208181526040808320878703905593871680835291849020805487019055925185815290927fddf252ad1be2c89b69c2b068fc378daa952ba7f163c4a11628f55a4df523b3ef910160405180910390a361062c565b6005546001600160a01b031633146103515760405162461bcd60e51b815260206004820181905260248201527f4f776e61626c653a2063616c6c6572206973206e6f7420746865206f776e657260448201526064016103cc565b6001600160a01b0382166108865760405162461bcd60e51b815260206004820152601f60248201527f45524332303a206d696e7420746f20746865207a65726f20616464726573730060448201526064016103cc565b80600260008282546108989190610aa0565b90915550506001600160a01b038216600081815260208181526040808320805486019055518481527fddf252ad1be2c89b69c2b068fc378daa952ba7f163c4a11628f55a4df523b3ef910160405180910390a35050565b600580546001600160a01b038381166001600160a01b0319831681179093556040519116919082907f8be0079c531659141344cd1fd0a4f28419497f9722a3daafe3b4186f6b6457e090600090a35050565b600060208083528351808285015260005b8181101561096e57858101830151858201604001528201610952565b506000604082860101526040601f19601f8301168501019250505092915050565b80356001600160a01b03811681146109a657600080fd5b919050565b600080604083850312156109be57600080fd5b6109c78361098f565b946020939093013593505050565b6000806000606084860312156109ea57600080fd5b6109f38461098f565b9250610a016020850161098f565b9150604084013590509250925092565b600060208284031215610a2357600080fd5b610a2c8261098f565b9392505050565b60008060408385031215610a4657600080fd5b610a4f8361098f565b9150610a5d6020840161098f565b90509250929050565b600181811c90821680610a7a57607f821691505b602082108103610a9a57634e487b7160e01b600052602260045260246000fd5b50919050565b808201808211156102dd57634e487b7160e01b600052601160045260246000fdfea2646970667358221220f8855897da80d1e84b2f02d265a9c0415e19ebf1c6e7ef53cf0043a09c137b8f64736f6c63430008140033a2646970667358221220d3d237d6316c68cafef31e56dc59b4bee9c4e342d9cd912007163db14b168efe64736f6c63430008140033",
  "devdoc": {
    "kind": "dev",
    "methods": {},
    "version": 1
  },
  "userdoc": {
    "kind": "user",
    "methods": {},
    "version": 1
  },
  "storageLayout": {
    "storage": [
      {
        "astId": 846,
        "contract": "contracts/ContractFactory.sol:ContractFactory",
        "label": "idCounter",
        "offset": 0,
        "slot": "0",
        "type": "t_uint256"
      },
      {
        "astId": 850,
        "contract": "contracts/ContractFactory.sol:ContractFactory",
        "label": "freelancers",
        "offset": 0,
        "slot": "1",
        "type": "t_array(t_struct(FreelancerInfo)844_storage)dyn_storage"
      }
    ],
    "types": {
      "t_address": {
        "encoding": "inplace",
        "label": "address",
        "numberOfBytes": "20"
      },
      "t_array(t_struct(FreelancerInfo)844_storage)dyn_storage": {
        "base": "t_struct(FreelancerInfo)844_storage",
        "encoding": "dynamic_array",
        "label": "struct ContractFactory.FreelancerInfo[]",
        "numberOfBytes": "32"
      },
      "t_string_storage": {
        "encoding": "bytes",
        "label": "string",
        "numberOfBytes": "32"
      },
      "t_struct(FreelancerInfo)844_storage": {
        "encoding": "inplace",
        "label": "struct ContractFactory.FreelancerInfo",
        "members": [
          {
            "astId": 835,
            "contract": "contracts/ContractFactory.sol:ContractFactory",
            "label": "id",
            "offset": 0,
            "slot": "0",
            "type": "t_uint256"
          },
          {
            "astId": 837,
            "contract": "contracts/ContractFactory.sol:ContractFactory",
            "label": "name",
            "offset": 0,
            "slot": "1",
            "type": "t_string_storage"
          },
          {
            "astId": 839,
            "contract": "contracts/ContractFactory.sol:ContractFactory",
            "label": "description",
            "offset": 0,
            "slot": "2",
            "type": "t_string_storage"
          },
          {
            "astId": 841,
            "contract": "contracts/ContractFactory.sol:ContractFactory",
            "label": "stakingContractAddress",
            "offset": 0,
            "slot": "3",
            "type": "t_address"
          },
          {
            "astId": 843,
            "contract": "contracts/ContractFactory.sol:ContractFactory",
            "label": "owner",
            "offset": 0,
            "slot": "4",
            "type": "t_address"
          }
        ],
        "numberOfBytes": "160"
      },
      "t_uint256": {
        "encoding": "inplace",
        "label": "uint256",
        "numberOfBytes": "32"
      }
    }
  }
}